{
  "contractName": "Project",
  "abi": [
    {
      "constant": true,
      "inputs": [],
      "name": "_userAddress",
      "outputs": [
        {
          "name": "",
          "type": "address"
        }
      ],
      "payable": false,
      "stateMutability": "view",
      "type": "function"
    },
    {
      "constant": true,
      "inputs": [
        {
          "name": "",
          "type": "address"
        }
      ],
      "name": "users",
      "outputs": [
        {
          "name": "name",
          "type": "string"
        },
        {
          "name": "accountType",
          "type": "string"
        },
        {
          "name": "set",
          "type": "bool"
        }
      ],
      "payable": false,
      "stateMutability": "view",
      "type": "function"
    },
    {
      "anonymous": false,
      "inputs": [
        {
          "indexed": false,
          "name": "",
          "type": "address"
        }
      ],
      "name": "LoginAttempt",
      "type": "event"
    },
    {
      "constant": false,
      "inputs": [
        {
          "name": "_userName",
          "type": "string"
        },
        {
          "name": "_accountType",
          "type": "string"
        }
      ],
      "name": "createUser",
      "outputs": [],
      "payable": false,
      "stateMutability": "nonpayable",
      "type": "function"
    },
    {
      "constant": true,
      "inputs": [],
      "name": "returnmsg",
      "outputs": [
        {
          "name": "",
          "type": "address"
        }
      ],
      "payable": false,
      "stateMutability": "view",
      "type": "function"
    },
    {
      "constant": true,
      "inputs": [],
      "name": "getUserCount",
      "outputs": [
        {
          "name": "count",
          "type": "uint256"
        }
      ],
      "payable": false,
      "stateMutability": "view",
      "type": "function"
    },
    {
      "constant": false,
      "inputs": [],
      "name": "login",
      "outputs": [],
      "payable": false,
      "stateMutability": "nonpayable",
      "type": "function"
    }
  ],
  "bytecode": "0x608060405234801561001057600080fd5b50610942806100206000396000f3fe608060405234801561001057600080fd5b50600436106100625760003560e01c8063170a7a77146100675780634877d863146100b157806387b162b5146100fb578063a87430ba1461024d578063b34e97e814610381578063b5cb15f71461038b575b600080fd5b61006f6103a9565b604051808273ffffffffffffffffffffffffffffffffffffffff1673ffffffffffffffffffffffffffffffffffffffff16815260200191505060405180910390f35b6100b96103cf565b604051808273ffffffffffffffffffffffffffffffffffffffff1673ffffffffffffffffffffffffffffffffffffffff16815260200191505060405180910390f35b61024b6004803603604081101561011157600080fd5b810190808035906020019064010000000081111561012e57600080fd5b82018360208201111561014057600080fd5b8035906020019184600183028401116401000000008311171561016257600080fd5b91908080601f016020809104026020016040519081016040528093929190818152602001838380828437600081840152601f19601f820116905080830192505050505050509192919290803590602001906401000000008111156101c557600080fd5b8201836020820111156101d757600080fd5b803590602001918460018302840111640100000000831117156101f957600080fd5b91908080601f016020809104026020016040519081016040528093929190818152602001838380828437600081840152601f19601f8201169050808301925050505050505091929192905050506103d7565b005b61028f6004803603602081101561026357600080fd5b81019080803573ffffffffffffffffffffffffffffffffffffffff169060200190929190505050610618565b60405180806020018060200184151515158152602001838103835286818151815260200191508051906020019080838360005b838110156102dd5780820151818401526020810190506102c2565b50505050905090810190601f16801561030a5780820380516001836020036101000a031916815260200191505b50838103825285818151815260200191508051906020019080838360005b83811015610343578082015181840152602081019050610328565b50505050905090810190601f1680156103705780820380516001836020036101000a031916815260200191505b509550505050505060405180910390f35b61038961077f565b005b610393610864565b6040518082815260200191505060405180910390f35b600260009054906101000a900473ffffffffffffffffffffffffffffffffffffffff1681565b600033905090565b60001515600360003373ffffffffffffffffffffffffffffffffffffffff1673ffffffffffffffffffffffffffffffffffffffff16815260200190815260200160002060009054906101000a900460ff1615151461049d576040517f08c379a00000000000000000000000000000000000000000000000000000000081526004018080602001828103825260058152602001807f6572726f7200000000000000000000000000000000000000000000000000000081525060200191505060405180910390fd5b60013390806001815401808255809150509060018203906000526020600020016000909192909190916101000a81548173ffffffffffffffffffffffffffffffffffffffff021916908373ffffffffffffffffffffffffffffffffffffffff160217905550506001600360003373ffffffffffffffffffffffffffffffffffffffff1673ffffffffffffffffffffffffffffffffffffffff16815260200190815260200160002060006101000a81548160ff0219169083151502179055506040518060600160405280838152602001828152602001600115158152506000803373ffffffffffffffffffffffffffffffffffffffff1673ffffffffffffffffffffffffffffffffffffffff16815260200190815260200160002060008201518160000190805190602001906105d3929190610871565b5060208201518160010190805190602001906105f0929190610871565b5060408201518160020160006101000a81548160ff0219169083151502179055509050505050565b6000602052806000526040600020600091509050806000018054600181600116156101000203166002900480601f0160208091040260200160405190810160405280929190818152602001828054600181600116156101000203166002900480156106c45780601f10610699576101008083540402835291602001916106c4565b820191906000526020600020905b8154815290600101906020018083116106a757829003601f168201915b505050505090806001018054600181600116156101000203166002900480601f0160208091040260200160405190810160405280929190818152602001828054600181600116156101000203166002900480156107625780601f1061073757610100808354040283529160200191610762565b820191906000526020600020905b81548152906001019060200180831161074557829003601f168201915b5050505050908060020160009054906101000a900460ff16905083565b6000806000600260009054906101000a900473ffffffffffffffffffffffffffffffffffffffff1673ffffffffffffffffffffffffffffffffffffffff1673ffffffffffffffffffffffffffffffffffffffff16815260200190815260200160002090508060020160009054906101000a900460ff166107fe57600080fd5b7fccc64b92c175dfb036cebf2caffd4aa81748e6d8e6da57c69e9e659b17f38c6e33604051808273ffffffffffffffffffffffffffffffffffffffff1673ffffffffffffffffffffffffffffffffffffffff16815260200191505060405180910390a150565b6000600180549050905090565b828054600181600116156101000203166002900490600052602060002090601f016020900481019282601f106108b257805160ff19168380011785556108e0565b828001600101855582156108e0579182015b828111156108df5782518255916020019190600101906108c4565b5b5090506108ed91906108f1565b5090565b61091391905b8082111561090f5760008160009055506001016108f7565b5090565b9056fea165627a7a72305820c371268ec90fb71dc7ec0c99ff25090521c5c2a67fa8b7a890a38e95c4be1c0d0029",
  "source": "pragma solidity ^0.5.8;\n\ncontract Project{\n    \n    struct User {\n    string name;\n    string accountType;\n    \n\n    bool set; // This boolean is used to differentiate between unset and zero struct values\n}\n\nmapping(address => User) public users;\naddress[] private addresses;\naddress public _userAddress ;\n\nmapping(address => bool) x;\n\nfunction createUser(string memory _userName, string memory _accountType) public {\n    \n  // _userAddress = msg.sender;\n   \n   require(x[msg.sender] == false, \"error\");\n   \n   //require(addresses[msg.sender] ==)\n \n   //User storage user = users[_userAddress];\n    // Check that the user did not already exist:\n    addresses.push(msg.sender);\n    x[msg.sender] = true;\n   //require(!user.set);\n    //Store the user\n    users[msg.sender] = User({\n        name: _userName,\n        accountType: _accountType,\n        set: true\n    });\n}\nfunction returnmsg() public view returns (address){\n    return msg.sender;\n}\nfunction getUserCount() public view returns(uint count){\n \n return addresses.length;\n    \n}\n    \n    event LoginAttempt(address);\n    \nfunction login() public{\n//address _userAddress = msg.sender;\n  User storage user = users[_userAddress];\n //  require(keccak256(abi.encodePacked(users[_userAddress].password)) == keccak256(abi.encodePacked((_password))),\"Invalid password\");\n\n    require(user.set);\n    emit LoginAttempt(msg.sender);\n    \n    \n    \n}\n    \n    \n    \n}\n\n\n",
  "sourcePath": "/home/hamza/pet-shop/contracts/Project.sol",
  "compiler": {
    "name": "solc",
    "version": "0.5.8+commit.23d335f2.Emscripten.clang"
  },
  "schemaVersion": "3.0.11",
  "updatedAt": "2019-07-21T11:04:22.694Z",
  "devdoc": {
    "methods": {}
  },
  "userdoc": {
    "methods": {}
  }
}